{
  "_format": "hh-sol-artifact-1",
  "contractName": "MyEpicGame",
  "sourceName": "contracts/MyEpicGame.sol",
  "abi": [
    {
      "inputs": [
        {
          "internalType": "string[]",
          "name": "characterNames",
          "type": "string[]"
        },
        {
          "internalType": "string[]",
          "name": "characterImageURIs",
          "type": "string[]"
        },
        {
          "internalType": "uint256[]",
          "name": "characterHp",
          "type": "uint256[]"
        },
        {
          "internalType": "uint256[]",
          "name": "characterAttackDmg",
          "type": "uint256[]"
        },
        {
          "internalType": "string",
          "name": "bossName",
          "type": "string"
        },
        {
          "internalType": "string",
          "name": "bossImageURI",
          "type": "string"
        },
        {
          "internalType": "uint256",
          "name": "bossHp",
          "type": "uint256"
        },
        {
          "internalType": "uint256",
          "name": "bossAttackDamage",
          "type": "uint256"
        }
      ],
      "stateMutability": "nonpayable",
      "type": "constructor"
    },
    {
      "anonymous": false,
      "inputs": [
        {
          "indexed": true,
          "internalType": "address",
          "name": "owner",
          "type": "address"
        },
        {
          "indexed": true,
          "internalType": "address",
          "name": "approved",
          "type": "address"
        },
        {
          "indexed": true,
          "internalType": "uint256",
          "name": "tokenId",
          "type": "uint256"
        }
      ],
      "name": "Approval",
      "type": "event"
    },
    {
      "anonymous": false,
      "inputs": [
        {
          "indexed": true,
          "internalType": "address",
          "name": "owner",
          "type": "address"
        },
        {
          "indexed": true,
          "internalType": "address",
          "name": "operator",
          "type": "address"
        },
        {
          "indexed": false,
          "internalType": "bool",
          "name": "approved",
          "type": "bool"
        }
      ],
      "name": "ApprovalForAll",
      "type": "event"
    },
    {
      "anonymous": false,
      "inputs": [
        {
          "indexed": false,
          "internalType": "address",
          "name": "sender",
          "type": "address"
        },
        {
          "indexed": false,
          "internalType": "uint256",
          "name": "newBossHp",
          "type": "uint256"
        },
        {
          "indexed": false,
          "internalType": "uint256",
          "name": "newPlayerHp",
          "type": "uint256"
        }
      ],
      "name": "AttackComplete",
      "type": "event"
    },
    {
      "anonymous": false,
      "inputs": [
        {
          "indexed": false,
          "internalType": "address",
          "name": "sender",
          "type": "address"
        },
        {
          "indexed": false,
          "internalType": "uint256",
          "name": "tokenId",
          "type": "uint256"
        },
        {
          "indexed": false,
          "internalType": "uint256",
          "name": "characterIndex",
          "type": "uint256"
        }
      ],
      "name": "CharacterNFTMinted",
      "type": "event"
    },
    {
      "anonymous": false,
      "inputs": [
        {
          "indexed": true,
          "internalType": "address",
          "name": "from",
          "type": "address"
        },
        {
          "indexed": true,
          "internalType": "address",
          "name": "to",
          "type": "address"
        },
        {
          "indexed": true,
          "internalType": "uint256",
          "name": "tokenId",
          "type": "uint256"
        }
      ],
      "name": "Transfer",
      "type": "event"
    },
    {
      "inputs": [
        {
          "internalType": "address",
          "name": "to",
          "type": "address"
        },
        {
          "internalType": "uint256",
          "name": "tokenId",
          "type": "uint256"
        }
      ],
      "name": "approve",
      "outputs": [],
      "stateMutability": "nonpayable",
      "type": "function"
    },
    {
      "inputs": [],
      "name": "attackBoss",
      "outputs": [],
      "stateMutability": "nonpayable",
      "type": "function"
    },
    {
      "inputs": [
        {
          "internalType": "address",
          "name": "owner",
          "type": "address"
        }
      ],
      "name": "balanceOf",
      "outputs": [
        {
          "internalType": "uint256",
          "name": "",
          "type": "uint256"
        }
      ],
      "stateMutability": "view",
      "type": "function"
    },
    {
      "inputs": [],
      "name": "bigBoss",
      "outputs": [
        {
          "internalType": "string",
          "name": "name",
          "type": "string"
        },
        {
          "internalType": "string",
          "name": "imageURI",
          "type": "string"
        },
        {
          "internalType": "uint256",
          "name": "hp",
          "type": "uint256"
        },
        {
          "internalType": "uint256",
          "name": "maxHp",
          "type": "uint256"
        },
        {
          "internalType": "uint256",
          "name": "attackDamage",
          "type": "uint256"
        }
      ],
      "stateMutability": "view",
      "type": "function"
    },
    {
      "inputs": [],
      "name": "checkIfUserHasNFT",
      "outputs": [
        {
          "components": [
            {
              "internalType": "uint256",
              "name": "characterIndex",
              "type": "uint256"
            },
            {
              "internalType": "string",
              "name": "name",
              "type": "string"
            },
            {
              "internalType": "string",
              "name": "imageURI",
              "type": "string"
            },
            {
              "internalType": "uint256",
              "name": "hp",
              "type": "uint256"
            },
            {
              "internalType": "uint256",
              "name": "maxHp",
              "type": "uint256"
            },
            {
              "internalType": "uint256",
              "name": "attackDamage",
              "type": "uint256"
            }
          ],
          "internalType": "struct MyEpicGame.CharacterAttributes",
          "name": "",
          "type": "tuple"
        }
      ],
      "stateMutability": "view",
      "type": "function"
    },
    {
      "inputs": [],
      "name": "getAllDefaultCharacters",
      "outputs": [
        {
          "components": [
            {
              "internalType": "uint256",
              "name": "characterIndex",
              "type": "uint256"
            },
            {
              "internalType": "string",
              "name": "name",
              "type": "string"
            },
            {
              "internalType": "string",
              "name": "imageURI",
              "type": "string"
            },
            {
              "internalType": "uint256",
              "name": "hp",
              "type": "uint256"
            },
            {
              "internalType": "uint256",
              "name": "maxHp",
              "type": "uint256"
            },
            {
              "internalType": "uint256",
              "name": "attackDamage",
              "type": "uint256"
            }
          ],
          "internalType": "struct MyEpicGame.CharacterAttributes[]",
          "name": "",
          "type": "tuple[]"
        }
      ],
      "stateMutability": "view",
      "type": "function"
    },
    {
      "inputs": [
        {
          "internalType": "uint256",
          "name": "tokenId",
          "type": "uint256"
        }
      ],
      "name": "getApproved",
      "outputs": [
        {
          "internalType": "address",
          "name": "",
          "type": "address"
        }
      ],
      "stateMutability": "view",
      "type": "function"
    },
    {
      "inputs": [],
      "name": "getBigBoss",
      "outputs": [
        {
          "components": [
            {
              "internalType": "string",
              "name": "name",
              "type": "string"
            },
            {
              "internalType": "string",
              "name": "imageURI",
              "type": "string"
            },
            {
              "internalType": "uint256",
              "name": "hp",
              "type": "uint256"
            },
            {
              "internalType": "uint256",
              "name": "maxHp",
              "type": "uint256"
            },
            {
              "internalType": "uint256",
              "name": "attackDamage",
              "type": "uint256"
            }
          ],
          "internalType": "struct MyEpicGame.BigBoss",
          "name": "",
          "type": "tuple"
        }
      ],
      "stateMutability": "view",
      "type": "function"
    },
    {
      "inputs": [
        {
          "internalType": "address",
          "name": "owner",
          "type": "address"
        },
        {
          "internalType": "address",
          "name": "operator",
          "type": "address"
        }
      ],
      "name": "isApprovedForAll",
      "outputs": [
        {
          "internalType": "bool",
          "name": "",
          "type": "bool"
        }
      ],
      "stateMutability": "view",
      "type": "function"
    },
    {
      "inputs": [
        {
          "internalType": "uint256",
          "name": "_characterIndex",
          "type": "uint256"
        }
      ],
      "name": "mintCharacterNFT",
      "outputs": [],
      "stateMutability": "nonpayable",
      "type": "function"
    },
    {
      "inputs": [],
      "name": "name",
      "outputs": [
        {
          "internalType": "string",
          "name": "",
          "type": "string"
        }
      ],
      "stateMutability": "view",
      "type": "function"
    },
    {
      "inputs": [
        {
          "internalType": "uint256",
          "name": "",
          "type": "uint256"
        }
      ],
      "name": "nftHolderAttributes",
      "outputs": [
        {
          "internalType": "uint256",
          "name": "characterIndex",
          "type": "uint256"
        },
        {
          "internalType": "string",
          "name": "name",
          "type": "string"
        },
        {
          "internalType": "string",
          "name": "imageURI",
          "type": "string"
        },
        {
          "internalType": "uint256",
          "name": "hp",
          "type": "uint256"
        },
        {
          "internalType": "uint256",
          "name": "maxHp",
          "type": "uint256"
        },
        {
          "internalType": "uint256",
          "name": "attackDamage",
          "type": "uint256"
        }
      ],
      "stateMutability": "view",
      "type": "function"
    },
    {
      "inputs": [
        {
          "internalType": "address",
          "name": "",
          "type": "address"
        }
      ],
      "name": "nftHolders",
      "outputs": [
        {
          "internalType": "uint256",
          "name": "",
          "type": "uint256"
        }
      ],
      "stateMutability": "view",
      "type": "function"
    },
    {
      "inputs": [
        {
          "internalType": "uint256",
          "name": "tokenId",
          "type": "uint256"
        }
      ],
      "name": "ownerOf",
      "outputs": [
        {
          "internalType": "address",
          "name": "",
          "type": "address"
        }
      ],
      "stateMutability": "view",
      "type": "function"
    },
    {
      "inputs": [
        {
          "internalType": "address",
          "name": "from",
          "type": "address"
        },
        {
          "internalType": "address",
          "name": "to",
          "type": "address"
        },
        {
          "internalType": "uint256",
          "name": "tokenId",
          "type": "uint256"
        }
      ],
      "name": "safeTransferFrom",
      "outputs": [],
      "stateMutability": "nonpayable",
      "type": "function"
    },
    {
      "inputs": [
        {
          "internalType": "address",
          "name": "from",
          "type": "address"
        },
        {
          "internalType": "address",
          "name": "to",
          "type": "address"
        },
        {
          "internalType": "uint256",
          "name": "tokenId",
          "type": "uint256"
        },
        {
          "internalType": "bytes",
          "name": "_data",
          "type": "bytes"
        }
      ],
      "name": "safeTransferFrom",
      "outputs": [],
      "stateMutability": "nonpayable",
      "type": "function"
    },
    {
      "inputs": [
        {
          "internalType": "address",
          "name": "operator",
          "type": "address"
        },
        {
          "internalType": "bool",
          "name": "approved",
          "type": "bool"
        }
      ],
      "name": "setApprovalForAll",
      "outputs": [],
      "stateMutability": "nonpayable",
      "type": "function"
    },
    {
      "inputs": [
        {
          "internalType": "bytes4",
          "name": "interfaceId",
          "type": "bytes4"
        }
      ],
      "name": "supportsInterface",
      "outputs": [
        {
          "internalType": "bool",
          "name": "",
          "type": "bool"
        }
      ],
      "stateMutability": "view",
      "type": "function"
    },
    {
      "inputs": [],
      "name": "symbol",
      "outputs": [
        {
          "internalType": "string",
          "name": "",
          "type": "string"
        }
      ],
      "stateMutability": "view",
      "type": "function"
    },
    {
      "inputs": [
        {
          "internalType": "uint256",
          "name": "_tokenId",
          "type": "uint256"
        }
      ],
      "name": "tokenURI",
      "outputs": [
        {
          "internalType": "string",
          "name": "",
          "type": "string"
        }
      ],
      "stateMutability": "view",
      "type": "function"
    },
    {
      "inputs": [
        {
          "internalType": "address",
          "name": "from",
          "type": "address"
        },
        {
          "internalType": "address",
          "name": "to",
          "type": "address"
        },
        {
          "internalType": "uint256",
          "name": "tokenId",
          "type": "uint256"
        }
      ],
      "name": "transferFrom",
      "outputs": [],
      "stateMutability": "nonpayable",
      "type": "function"
    }
  ],
  "bytecode": "0x60806040523480156200001157600080fd5b506040516200546a3803806200546a833981810160405281019062000037919062000a85565b6040518060400160405280600681526020017f4865726f657300000000000000000000000000000000000000000000000000008152506040518060400160405280600481526020017f4845524f000000000000000000000000000000000000000000000000000000008152508160009080519060200190620000bb929190620007ed565b508060019080519060200190620000d4929190620007ed565b5050506040518060a0016040528085815260200184815260200183815260200183815260200182815250600a60008201518160000190805190602001906200011e929190620007ed565b5060208201518160010190805190602001906200013d929190620007ed565b50604082015181600201556060820151816003015560808201518160040155905050620002c06040518060600160405280602a815260200162005440602a9139600a60000180546200018f9062000e08565b80601f0160208091040260200160405190810160405280929190818152602001828054620001bd9062000e08565b80156200020e5780601f10620001e2576101008083540402835291602001916200020e565b820191906000526020600020905b815481529060010190602001808311620001f057829003601f168201915b5050505050600a60020154600a60010180546200022b9062000e08565b80601f0160208091040260200160405190810160405280929190818152602001828054620002599062000e08565b8015620002aa5780601f106200027e57610100808354040283529160200191620002aa565b820191906000526020600020905b8154815290600101906020018083116200028c57829003601f168201915b50505050506200070260201b620019fa1760201c565b60005b8851811015620006dc5760076040518060c001604052808381526020018b84815181106200031a577f4e487b7100000000000000000000000000000000000000000000000000000000600052603260045260246000fd5b602002602001015181526020018a848151811062000361577f4e487b7100000000000000000000000000000000000000000000000000000000600052603260045260246000fd5b60200260200101518152602001898481518110620003a8577f4e487b7100000000000000000000000000000000000000000000000000000000600052603260045260246000fd5b60200260200101518152602001898481518110620003ef577f4e487b7100000000000000000000000000000000000000000000000000000000600052603260045260246000fd5b6020026020010151815260200188848151811062000436577f4e487b7100000000000000000000000000000000000000000000000000000000600052603260045260246000fd5b6020026020010151815250908060018154018082558091505060019003906000526020600020906006020160009091909190915060008201518160000155602082015181600101908051906020019062000492929190620007ed565b506040820151816002019080519060200190620004b1929190620007ed565b50606082015181600301556080820151816004015560a0820151816005015550506000600782815481106200050f577f4e487b7100000000000000000000000000000000000000000000000000000000600052603260045260246000fd5b90600052602060002090600602016040518060c001604052908160008201548152602001600182018054620005449062000e08565b80601f0160208091040260200160405190810160405280929190818152602001828054620005729062000e08565b8015620005c35780601f106200059757610100808354040283529160200191620005c3565b820191906000526020600020905b815481529060010190602001808311620005a557829003601f168201915b50505050508152602001600282018054620005de9062000e08565b80601f01602080910402602001604051908101604052809291908181526020018280546200060c9062000e08565b80156200065d5780601f1062000631576101008083540402835291602001916200065d565b820191906000526020600020905b8154815290600101906020018083116200063f57829003601f168201915b5050505050815260200160038201548152602001600482015481526020016005820154815250509050620006c46040518060600160405280602581526020016200541b602591398260200151836060015184604001516200070260201b620019fa1760201c565b50600181620006d4919062000d6b565b9050620002c3565b50620006f46006620007ae60201b62001a9c1760201c565b505050505050505062000f2c565b620007a8848484846040516024016200071f949392919062000c30565b6040516020818303038152906040527f8d142cdd000000000000000000000000000000000000000000000000000000007bffffffffffffffffffffffffffffffffffffffffffffffffffffffff19166020820180517bffffffffffffffffffffffffffffffffffffffffffffffffffffffff8381831617835250505050620007c460201b60201c565b50505050565b6001816000016000828254019250508190555050565b60008151905060006a636f6e736f6c652e6c6f679050602083016000808483855afa5050505050565b828054620007fb9062000e08565b90600052602060002090601f0160209004810192826200081f57600085556200086b565b82601f106200083a57805160ff19168380011785556200086b565b828001600101855582156200086b579182015b828111156200086a5782518255916020019190600101906200084d565b5b5090506200087a91906200087e565b5090565b5b80821115620008995760008160009055506001016200087f565b5090565b6000620008b4620008ae8462000cbb565b62000c92565b90508083825260208201905082856020860282011115620008d457600080fd5b60005b858110156200092357815167ffffffffffffffff811115620008f857600080fd5b80860162000907898262000a41565b85526020850194506020840193505050600181019050620008d7565b5050509392505050565b6000620009446200093e8462000cea565b62000c92565b905080838252602082019050828560208602820111156200096457600080fd5b60005b858110156200099857816200097d888262000a6e565b84526020840193506020830192505060018101905062000967565b5050509392505050565b6000620009b9620009b38462000d19565b62000c92565b905082815260208101848484011115620009d257600080fd5b620009df84828562000dd2565b509392505050565b600082601f830112620009f957600080fd5b815162000a0b8482602086016200089d565b91505092915050565b600082601f83011262000a2657600080fd5b815162000a388482602086016200092d565b91505092915050565b600082601f83011262000a5357600080fd5b815162000a65848260208601620009a2565b91505092915050565b60008151905062000a7f8162000f12565b92915050565b600080600080600080600080610100898b03121562000aa357600080fd5b600089015167ffffffffffffffff81111562000abe57600080fd5b62000acc8b828c01620009e7565b985050602089015167ffffffffffffffff81111562000aea57600080fd5b62000af88b828c01620009e7565b975050604089015167ffffffffffffffff81111562000b1657600080fd5b62000b248b828c0162000a14565b965050606089015167ffffffffffffffff81111562000b4257600080fd5b62000b508b828c0162000a14565b955050608089015167ffffffffffffffff81111562000b6e57600080fd5b62000b7c8b828c0162000a41565b94505060a089015167ffffffffffffffff81111562000b9a57600080fd5b62000ba88b828c0162000a41565b93505060c062000bbb8b828c0162000a6e565b92505060e062000bce8b828c0162000a6e565b9150509295985092959890939650565b600062000beb8262000d4f565b62000bf7818562000d5a565b935062000c0981856020860162000dd2565b62000c148162000f01565b840191505092915050565b62000c2a8162000dc8565b82525050565b6000608082019050818103600083015262000c4c818762000bde565b9050818103602083015262000c62818662000bde565b905062000c73604083018562000c1f565b818103606083015262000c87818462000bde565b905095945050505050565b600062000c9e62000cb1565b905062000cac828262000e3e565b919050565b6000604051905090565b600067ffffffffffffffff82111562000cd95762000cd862000ed2565b5b602082029050602081019050919050565b600067ffffffffffffffff82111562000d085762000d0762000ed2565b5b602082029050602081019050919050565b600067ffffffffffffffff82111562000d375762000d3662000ed2565b5b62000d428262000f01565b9050602081019050919050565b600081519050919050565b600082825260208201905092915050565b600062000d788262000dc8565b915062000d858362000dc8565b9250827fffffffffffffffffffffffffffffffffffffffffffffffffffffffffffffffff0382111562000dbd5762000dbc62000e74565b5b828201905092915050565b6000819050919050565b60005b8381101562000df257808201518184015260208101905062000dd5565b8381111562000e02576000848401525b50505050565b6000600282049050600182168062000e2157607f821691505b6020821081141562000e385762000e3762000ea3565b5b50919050565b62000e498262000f01565b810181811067ffffffffffffffff8211171562000e6b5762000e6a62000ed2565b5b80604052505050565b7f4e487b7100000000000000000000000000000000000000000000000000000000600052601160045260246000fd5b7f4e487b7100000000000000000000000000000000000000000000000000000000600052602260045260246000fd5b7f4e487b7100000000000000000000000000000000000000000000000000000000600052604160045260246000fd5b6000601f19601f8301169050919050565b62000f1d8162000dc8565b811462000f2957600080fd5b50565b6144df8062000f3c6000396000f3fe608060405234801561001057600080fd5b50600436106101375760003560e01c806395d89b41116100b8578063b953084e1161007c578063b953084e14610369578063c87b56dd14610387578063c8cf27f4146103b7578063d4f24c5b146103d5578063e985e9c5146103df578063f8b81ef71461040f57610137565b806395d89b41146102bc57806398da4c95146102da578063a22cb4651461030f578063a9c326791461032b578063b88d4fde1461034d57610137565b806323b872dd116100ff57806323b872dd146101f457806342842e0e146102105780636352211e1461022c57806370a082311461025c5780637df124a11461028c57610137565b806301ffc9a71461013c5780630665f9611461016c57806306fdde031461018a578063081812fc146101a8578063095ea7b3146101d8575b600080fd5b61015660048036038101906101519190612d2f565b61042b565b6040516101639190613594565b60405180910390f35b61017461050d565b60405161018191906138aa565b60405180910390f35b610192610669565b60405161019f91906135af565b60405180910390f35b6101c260048036038101906101bd9190612d81565b6106fb565b6040516101cf91906134d4565b60405180910390f35b6101f260048036038101906101ed9190612cf3565b610780565b005b61020e60048036038101906102099190612bed565b610898565b005b61022a60048036038101906102259190612bed565b6108f8565b005b61024660048036038101906102419190612d81565b610918565b60405161025391906134d4565b60405180910390f35b61027660048036038101906102719190612b88565b6109ca565b60405161028391906138ee565b60405180910390f35b6102a660048036038101906102a19190612b88565b610a82565b6040516102b391906138ee565b60405180910390f35b6102c4610a9a565b6040516102d191906135af565b60405180910390f35b6102f460048036038101906102ef9190612d81565b610b2c565b60405161030696959493929190613909565b60405180910390f35b61032960048036038101906103249190612cb7565b610c78565b005b610333610c8e565b60405161034495949392919061362b565b60405180910390f35b61036760048036038101906103629190612c3c565b610dc2565b005b610371610e24565b60405161037e9190613572565b60405180910390f35b6103a1600480360381019061039c9190612d81565b610fcf565b6040516103ae91906135af565b60405180910390f35b6103bf6111ea565b6040516103cc91906138cc565b60405180910390f35b6103dd6113c2565b005b6103f960048036038101906103f49190612bb1565b611572565b6040516104069190613594565b60405180910390f35b61042960048036038101906104249190612d81565b611606565b005b60007f80ac58cd000000000000000000000000000000000000000000000000000000007bffffffffffffffffffffffffffffffffffffffffffffffffffffffff1916827bffffffffffffffffffffffffffffffffffffffffffffffffffffffff191614806104f657507f5b5e139f000000000000000000000000000000000000000000000000000000007bffffffffffffffffffffffffffffffffffffffffffffffffffffffff1916827bffffffffffffffffffffffffffffffffffffffffffffffffffffffff1916145b80610506575061050582611ab2565b5b9050919050565b6105156129af565b600a6040518060a001604052908160008201805461053290613c26565b80601f016020809104026020016040519081016040528092919081815260200182805461055e90613c26565b80156105ab5780601f10610580576101008083540402835291602001916105ab565b820191906000526020600020905b81548152906001019060200180831161058e57829003601f168201915b505050505081526020016001820180546105c490613c26565b80601f01602080910402602001604051908101604052809291908181526020018280546105f090613c26565b801561063d5780601f106106125761010080835404028352916020019161063d565b820191906000526020600020905b81548152906001019060200180831161062057829003601f168201915b505050505081526020016002820154815260200160038201548152602001600482015481525050905090565b60606000805461067890613c26565b80601f01602080910402602001604051908101604052809291908181526020018280546106a490613c26565b80156106f15780601f106106c6576101008083540402835291602001916106f1565b820191906000526020600020905b8154815290600101906020018083116106d457829003601f168201915b5050505050905090565b600061070682611b1c565b610745576040517f08c379a000000000000000000000000000000000000000000000000000000000815260040161073c9061384a565b60405180910390fd5b6004600083815260200190815260200160002060009054906101000a900473ffffffffffffffffffffffffffffffffffffffff169050919050565b600061078b82610918565b90508073ffffffffffffffffffffffffffffffffffffffff168373ffffffffffffffffffffffffffffffffffffffff1614156107fc576040517f08c379a00000000000000000000000000000000000000000000000000000000081526004016107f39061386a565b60405180910390fd5b8073ffffffffffffffffffffffffffffffffffffffff1661081b611b88565b73ffffffffffffffffffffffffffffffffffffffff16148061084a575061084981610844611b88565b611572565b5b610889576040517f08c379a0000000000000000000000000000000000000000000000000000000008152600401610880906137aa565b60405180910390fd5b6108938383611b90565b505050565b6108a96108a3611b88565b82611c49565b6108e8576040517f08c379a00000000000000000000000000000000000000000000000000000000081526004016108df9061388a565b60405180910390fd5b6108f3838383611d27565b505050565b61091383838360405180602001604052806000815250610dc2565b505050565b6000806002600084815260200190815260200160002060009054906101000a900473ffffffffffffffffffffffffffffffffffffffff169050600073ffffffffffffffffffffffffffffffffffffffff168173ffffffffffffffffffffffffffffffffffffffff1614156109c1576040517f08c379a00000000000000000000000000000000000000000000000000000000081526004016109b8906137ea565b60405180910390fd5b80915050919050565b60008073ffffffffffffffffffffffffffffffffffffffff168273ffffffffffffffffffffffffffffffffffffffff161415610a3b576040517f08c379a0000000000000000000000000000000000000000000000000000000008152600401610a32906137ca565b60405180910390fd5b600360008373ffffffffffffffffffffffffffffffffffffffff1673ffffffffffffffffffffffffffffffffffffffff168152602001908152602001600020549050919050565b60096020528060005260406000206000915090505481565b606060018054610aa990613c26565b80601f0160208091040260200160405190810160405280929190818152602001828054610ad590613c26565b8015610b225780601f10610af757610100808354040283529160200191610b22565b820191906000526020600020905b815481529060010190602001808311610b0557829003601f168201915b5050505050905090565b6008602052806000526040600020600091509050806000015490806001018054610b5590613c26565b80601f0160208091040260200160405190810160405280929190818152602001828054610b8190613c26565b8015610bce5780601f10610ba357610100808354040283529160200191610bce565b820191906000526020600020905b815481529060010190602001808311610bb157829003601f168201915b505050505090806002018054610be390613c26565b80601f0160208091040260200160405190810160405280929190818152602001828054610c0f90613c26565b8015610c5c5780601f10610c3157610100808354040283529160200191610c5c565b820191906000526020600020905b815481529060010190602001808311610c3f57829003601f168201915b5050505050908060030154908060040154908060050154905086565b610c8a610c83611b88565b8383611f8e565b5050565b600a806000018054610c9f90613c26565b80601f0160208091040260200160405190810160405280929190818152602001828054610ccb90613c26565b8015610d185780601f10610ced57610100808354040283529160200191610d18565b820191906000526020600020905b815481529060010190602001808311610cfb57829003601f168201915b505050505090806001018054610d2d90613c26565b80601f0160208091040260200160405190810160405280929190818152602001828054610d5990613c26565b8015610da65780601f10610d7b57610100808354040283529160200191610da6565b820191906000526020600020905b815481529060010190602001808311610d8957829003601f168201915b5050505050908060020154908060030154908060040154905085565b610dd3610dcd611b88565b83611c49565b610e12576040517f08c379a0000000000000000000000000000000000000000000000000000000008152600401610e099061388a565b60405180910390fd5b610e1e848484846120fb565b50505050565b60606007805480602002602001604051908101604052809291908181526020016000905b82821015610fc657838290600052602060002090600602016040518060c001604052908160008201548152602001600182018054610e8590613c26565b80601f0160208091040260200160405190810160405280929190818152602001828054610eb190613c26565b8015610efe5780601f10610ed357610100808354040283529160200191610efe565b820191906000526020600020905b815481529060010190602001808311610ee157829003601f168201915b50505050508152602001600282018054610f1790613c26565b80601f0160208091040260200160405190810160405280929190818152602001828054610f4390613c26565b8015610f905780601f10610f6557610100808354040283529160200191610f90565b820191906000526020600020905b815481529060010190602001808311610f7357829003601f168201915b50505050508152602001600382015481526020016004820154815260200160058201548152505081526020019060010190610e48565b50505050905090565b60606000600860008481526020019081526020016000206040518060c00160405290816000820154815260200160018201805461100b90613c26565b80601f016020809104026020016040519081016040528092919081815260200182805461103790613c26565b80156110845780601f1061105957610100808354040283529160200191611084565b820191906000526020600020905b81548152906001019060200180831161106757829003601f168201915b5050505050815260200160028201805461109d90613c26565b80601f01602080910402602001604051908101604052809291908181526020018280546110c990613c26565b80156111165780601f106110eb57610100808354040283529160200191611116565b820191906000526020600020905b8154815290600101906020018083116110f957829003601f168201915b5050505050815260200160038201548152602001600482015481526020016005820154815250509050600061114e8260600151612157565b9050600061115f8360800151612157565b905060006111708460a00151612157565b905060006111b6856020015161118589612157565b87604001518787876040516020016111a29695949392919061340d565b604051602081830303815290604052612304565b90506000816040516020016111cb91906134b2565b6040516020818303038152906040529050809650505050505050919050565b6111f26129de565b6000600960003373ffffffffffffffffffffffffffffffffffffffff1673ffffffffffffffffffffffffffffffffffffffff16815260200190815260200160002054905060008111156113b157600860008281526020019081526020016000206040518060c00160405290816000820154815260200160018201805461127790613c26565b80601f01602080910402602001604051908101604052809291908181526020018280546112a390613c26565b80156112f05780601f106112c5576101008083540402835291602001916112f0565b820191906000526020600020905b8154815290600101906020018083116112d357829003601f168201915b5050505050815260200160028201805461130990613c26565b80601f016020809104026020016040519081016040528092919081815260200182805461133590613c26565b80156113825780601f1061135757610100808354040283529160200191611382565b820191906000526020600020905b81548152906001019060200180831161136557829003601f168201915b5050505050815260200160038201548152602001600482015481526020016005820154815250509150506113bf565b6113b96129de565b80925050505b90565b6000600960003373ffffffffffffffffffffffffffffffffffffffff1673ffffffffffffffffffffffffffffffffffffffff16815260200190815260200160002054905060006008600083815260200190815260200160002090506000816003015411611464576040517f08c379a000000000000000000000000000000000000000000000000000000000815260040161145b9061380a565b60405180910390fd5b6000600a60020154116114ac576040517f08c379a00000000000000000000000000000000000000000000000000000000081526004016114a39061370a565b60405180910390fd5b8060050154600a6002015410156114cd576000600a600201819055506114ec565b8060050154600a600201546114e29190613b3c565b600a600201819055505b600a600401548160030154101561150c576000816003018190555061152a565b600a6004015481600301546115219190613b3c565b81600301819055505b7f32bd565ee3f2cb5ddd742bbecd6048d3e9abe90b3827a40c2b72d232e71e3c9d33600a6002015483600301546040516115669392919061353b565b60405180910390a15050565b6000600560008473ffffffffffffffffffffffffffffffffffffffff1673ffffffffffffffffffffffffffffffffffffffff16815260200190815260200160002060008373ffffffffffffffffffffffffffffffffffffffff1673ffffffffffffffffffffffffffffffffffffffff16815260200190815260200160002060009054906101000a900460ff16905092915050565b600061161260066124c2565b905061161e33826124d0565b6040518060c0016040528083815260200160078481548110611669577f4e487b7100000000000000000000000000000000000000000000000000000000600052603260045260246000fd5b9060005260206000209060060201600101805461168590613c26565b80601f01602080910402602001604051908101604052809291908181526020018280546116b190613c26565b80156116fe5780601f106116d3576101008083540402835291602001916116fe565b820191906000526020600020905b8154815290600101906020018083116116e157829003601f168201915b5050505050815260200160078481548110611742577f4e487b7100000000000000000000000000000000000000000000000000000000600052603260045260246000fd5b9060005260206000209060060201600201805461175e90613c26565b80601f016020809104026020016040519081016040528092919081815260200182805461178a90613c26565b80156117d75780601f106117ac576101008083540402835291602001916117d7565b820191906000526020600020905b8154815290600101906020018083116117ba57829003601f168201915b505050505081526020016007848154811061181b577f4e487b7100000000000000000000000000000000000000000000000000000000600052603260045260246000fd5b90600052602060002090600602016003015481526020016007848154811061186c577f4e487b7100000000000000000000000000000000000000000000000000000000600052603260045260246000fd5b9060005260206000209060060201600401548152602001600784815481106118bd577f4e487b7100000000000000000000000000000000000000000000000000000000600052603260045260246000fd5b9060005260206000209060060201600501548152506008600083815260200190815260200160002060008201518160000155602082015181600101908051906020019061190b929190612a14565b506040820151816002019080519060200190611928929190612a14565b50606082015181600301556080820151816004015560a0820151816005015590505061196d6040518060600160405280602e815260200161447c602e913982846124ee565b80600960003373ffffffffffffffffffffffffffffffffffffffff1673ffffffffffffffffffffffffffffffffffffffff168152602001908152602001600020819055506119bb6006611a9c565b7f4bc303fd457a97b4691b9af582ce71868a3d258638c8d4f8c60988a0f0bfb8cd3382846040516119ee9392919061353b565b60405180910390a15050565b611a9684848484604051602401611a1494939291906135d1565b6040516020818303038152906040527f8d142cdd000000000000000000000000000000000000000000000000000000007bffffffffffffffffffffffffffffffffffffffffffffffffffffffff19166020820180517bffffffffffffffffffffffffffffffffffffffffffffffffffffffff838183161783525050505061258d565b50505050565b6001816000016000828254019250508190555050565b60007f01ffc9a7000000000000000000000000000000000000000000000000000000007bffffffffffffffffffffffffffffffffffffffffffffffffffffffff1916827bffffffffffffffffffffffffffffffffffffffffffffffffffffffff1916149050919050565b60008073ffffffffffffffffffffffffffffffffffffffff166002600084815260200190815260200160002060009054906101000a900473ffffffffffffffffffffffffffffffffffffffff1673ffffffffffffffffffffffffffffffffffffffff1614159050919050565b600033905090565b816004600083815260200190815260200160002060006101000a81548173ffffffffffffffffffffffffffffffffffffffff021916908373ffffffffffffffffffffffffffffffffffffffff160217905550808273ffffffffffffffffffffffffffffffffffffffff16611c0383610918565b73ffffffffffffffffffffffffffffffffffffffff167f8c5be1e5ebec7d5bd14f71427d1e84f3dd0314c0f7b2291e5b200ac8c7c3b92560405160405180910390a45050565b6000611c5482611b1c565b611c93576040517f08c379a0000000000000000000000000000000000000000000000000000000008152600401611c8a9061378a565b60405180910390fd5b6000611c9e83610918565b90508073ffffffffffffffffffffffffffffffffffffffff168473ffffffffffffffffffffffffffffffffffffffff161480611ce05750611cdf8185611572565b5b80611d1e57508373ffffffffffffffffffffffffffffffffffffffff16611d06846106fb565b73ffffffffffffffffffffffffffffffffffffffff16145b91505092915050565b8273ffffffffffffffffffffffffffffffffffffffff16611d4782610918565b73ffffffffffffffffffffffffffffffffffffffff1614611d9d576040517f08c379a0000000000000000000000000000000000000000000000000000000008152600401611d94906136ea565b60405180910390fd5b600073ffffffffffffffffffffffffffffffffffffffff168273ffffffffffffffffffffffffffffffffffffffff161415611e0d576040517f08c379a0000000000000000000000000000000000000000000000000000000008152600401611e049061374a565b60405180910390fd5b611e188383836125b6565b611e23600082611b90565b6001600360008573ffffffffffffffffffffffffffffffffffffffff1673ffffffffffffffffffffffffffffffffffffffff1681526020019081526020016000206000828254611e739190613b3c565b925050819055506001600360008473ffffffffffffffffffffffffffffffffffffffff1673ffffffffffffffffffffffffffffffffffffffff1681526020019081526020016000206000828254611eca9190613a5b565b92505081905550816002600083815260200190815260200160002060006101000a81548173ffffffffffffffffffffffffffffffffffffffff021916908373ffffffffffffffffffffffffffffffffffffffff160217905550808273ffffffffffffffffffffffffffffffffffffffff168473ffffffffffffffffffffffffffffffffffffffff167fddf252ad1be2c89b69c2b068fc378daa952ba7f163c4a11628f55a4df523b3ef60405160405180910390a4611f898383836125bb565b505050565b8173ffffffffffffffffffffffffffffffffffffffff168373ffffffffffffffffffffffffffffffffffffffff161415611ffd576040517f08c379a0000000000000000000000000000000000000000000000000000000008152600401611ff49061376a565b60405180910390fd5b80600560008573ffffffffffffffffffffffffffffffffffffffff1673ffffffffffffffffffffffffffffffffffffffff16815260200190815260200160002060008473ffffffffffffffffffffffffffffffffffffffff1673ffffffffffffffffffffffffffffffffffffffff16815260200190815260200160002060006101000a81548160ff0219169083151502179055508173ffffffffffffffffffffffffffffffffffffffff168373ffffffffffffffffffffffffffffffffffffffff167f17307eab39ab6107e8899845ad3d59bd9653f200f220920489ca2b5937696c31836040516120ee9190613594565b60405180910390a3505050565b612106848484611d27565b612112848484846125c0565b612151576040517f08c379a0000000000000000000000000000000000000000000000000000000008152600401612148906136ca565b60405180910390fd5b50505050565b6060600082141561219f576040518060400160405280600181526020017f300000000000000000000000000000000000000000000000000000000000000081525090506122ff565b600082905060005b600082146121d15780806121ba90613c89565b915050600a826121ca9190613ab1565b91506121a7565b60008167ffffffffffffffff811115612213577f4e487b7100000000000000000000000000000000000000000000000000000000600052604160045260246000fd5b6040519080825280601f01601f1916602001820160405280156122455781602001600182028036833780820191505090505b5090505b600085146122f85760018261225e9190613b3c565b9150600a8561226d9190613cd2565b60306122799190613a5b565b60f81b8183815181106122b5577f4e487b7100000000000000000000000000000000000000000000000000000000600052603260045260246000fd5b60200101907effffffffffffffffffffffffffffffffffffffffffffffffffffffffffffff1916908160001a905350600a856122f19190613ab1565b9450612249565b8093505050505b919050565b6060600082519050600081141561232d57604051806020016040528060008152509150506124bd565b6000600360028361233e9190613a5b565b6123489190613ab1565b60046123549190613ae2565b905060006020826123659190613a5b565b67ffffffffffffffff8111156123a4577f4e487b7100000000000000000000000000000000000000000000000000000000600052604160045260246000fd5b6040519080825280601f01601f1916602001820160405280156123d65781602001600182028036833780820191505090505b509050600060405180606001604052806040815260200161443c604091399050600181016020830160005b8681101561247a5760038101905062ffffff818a015116603f8160121c168401518060081b905060ff603f83600c1c1686015116810190508060081b905060ff603f8360061c1686015116810190508060081b905060ff603f831686015116810190508060e01b90508084526004840193505050612401565b50600386066001811461249457600281146124a4576124af565b613d3d60f01b60028303526124af565b603d60f81b60018303525b508484525050819450505050505b919050565b600081600001549050919050565b6124ea828260405180602001604052806000815250612757565b5050565b6125888383836040516024016125069392919061368c565b6040516020818303038152906040527f969cdd03000000000000000000000000000000000000000000000000000000007bffffffffffffffffffffffffffffffffffffffffffffffffffffffff19166020820180517bffffffffffffffffffffffffffffffffffffffffffffffffffffffff838183161783525050505061258d565b505050565b60008151905060006a636f6e736f6c652e6c6f679050602083016000808483855afa5050505050565b505050565b505050565b60006125e18473ffffffffffffffffffffffffffffffffffffffff166127b2565b1561274a578373ffffffffffffffffffffffffffffffffffffffff1663150b7a0261260a611b88565b8786866040518563ffffffff1660e01b815260040161262c94939291906134ef565b602060405180830381600087803b15801561264657600080fd5b505af192505050801561267757506040513d601f19601f820116820180604052508101906126749190612d58565b60015b6126fa573d80600081146126a7576040519150601f19603f3d011682016040523d82523d6000602084013e6126ac565b606091505b506000815114156126f2576040517f08c379a00000000000000000000000000000000000000000000000000000000081526004016126e9906136ca565b60405180910390fd5b805181602001fd5b63150b7a0260e01b7bffffffffffffffffffffffffffffffffffffffffffffffffffffffff1916817bffffffffffffffffffffffffffffffffffffffffffffffffffffffff19161491505061274f565b600190505b949350505050565b61276183836127d5565b61276e60008484846125c0565b6127ad576040517f08c379a00000000000000000000000000000000000000000000000000000000081526004016127a4906136ca565b60405180910390fd5b505050565b6000808273ffffffffffffffffffffffffffffffffffffffff163b119050919050565b600073ffffffffffffffffffffffffffffffffffffffff168273ffffffffffffffffffffffffffffffffffffffff161415612845576040517f08c379a000000000000000000000000000000000000000000000000000000000815260040161283c9061382a565b60405180910390fd5b61284e81611b1c565b1561288e576040517f08c379a00000000000000000000000000000000000000000000000000000000081526004016128859061372a565b60405180910390fd5b61289a600083836125b6565b6001600360008473ffffffffffffffffffffffffffffffffffffffff1673ffffffffffffffffffffffffffffffffffffffff16815260200190815260200160002060008282546128ea9190613a5b565b92505081905550816002600083815260200190815260200160002060006101000a81548173ffffffffffffffffffffffffffffffffffffffff021916908373ffffffffffffffffffffffffffffffffffffffff160217905550808273ffffffffffffffffffffffffffffffffffffffff16600073ffffffffffffffffffffffffffffffffffffffff167fddf252ad1be2c89b69c2b068fc378daa952ba7f163c4a11628f55a4df523b3ef60405160405180910390a46129ab600083836125bb565b5050565b6040518060a0016040528060608152602001606081526020016000815260200160008152602001600081525090565b6040518060c001604052806000815260200160608152602001606081526020016000815260200160008152602001600081525090565b828054612a2090613c26565b90600052602060002090601f016020900481019282612a425760008555612a89565b82601f10612a5b57805160ff1916838001178555612a89565b82800160010185558215612a89579182015b82811115612a88578251825591602001919060010190612a6d565b5b509050612a969190612a9a565b5090565b5b80821115612ab3576000816000905550600101612a9b565b5090565b6000612aca612ac58461399d565b613978565b905082815260208101848484011115612ae257600080fd5b612aed848285613be4565b509392505050565b600081359050612b04816143df565b92915050565b600081359050612b19816143f6565b92915050565b600081359050612b2e8161440d565b92915050565b600081519050612b438161440d565b92915050565b600082601f830112612b5a57600080fd5b8135612b6a848260208601612ab7565b91505092915050565b600081359050612b8281614424565b92915050565b600060208284031215612b9a57600080fd5b6000612ba884828501612af5565b91505092915050565b60008060408385031215612bc457600080fd5b6000612bd285828601612af5565b9250506020612be385828601612af5565b9150509250929050565b600080600060608486031215612c0257600080fd5b6000612c1086828701612af5565b9350506020612c2186828701612af5565b9250506040612c3286828701612b73565b9150509250925092565b60008060008060808587031215612c5257600080fd5b6000612c6087828801612af5565b9450506020612c7187828801612af5565b9350506040612c8287828801612b73565b925050606085013567ffffffffffffffff811115612c9f57600080fd5b612cab87828801612b49565b91505092959194509250565b60008060408385031215612cca57600080fd5b6000612cd885828601612af5565b9250506020612ce985828601612b0a565b9150509250929050565b60008060408385031215612d0657600080fd5b6000612d1485828601612af5565b9250506020612d2585828601612b73565b9150509250929050565b600060208284031215612d4157600080fd5b6000612d4f84828501612b1f565b91505092915050565b600060208284031215612d6a57600080fd5b6000612d7884828501612b34565b91505092915050565b600060208284031215612d9357600080fd5b6000612da184828501612b73565b91505092915050565b6000612db683836132cf565b905092915050565b612dc781613b70565b82525050565b6000612dd8826139de565b612de28185613a0c565b935083602082028501612df4856139ce565b8060005b85811015612e305784840389528151612e118582612daa565b9450612e1c836139ff565b925060208a01995050600181019050612df8565b50829750879550505050505092915050565b612e4b81613b82565b82525050565b6000612e5c826139e9565b612e668185613a1d565b9350612e76818560208601613bf3565b612e7f81613dbf565b840191505092915050565b6000612e95826139f4565b612e9f8185613a2e565b9350612eaf818560208601613bf3565b612eb881613dbf565b840191505092915050565b6000612ece826139f4565b612ed88185613a3f565b9350612ee8818560208601613bf3565b612ef181613dbf565b840191505092915050565b6000612f07826139f4565b612f118185613a50565b9350612f21818560208601613bf3565b80840191505092915050565b6000612f3a600b83613a50565b9150612f4582613dd0565b600b82019050919050565b6000612f5d603283613a3f565b9150612f6882613df9565b604082019050919050565b6000612f80602583613a3f565b9150612f8b82613e48565b604082019050919050565b6000612fa3602883613a3f565b9150612fae82613e97565b604082019050919050565b6000612fc6601c83613a3f565b9150612fd182613ee6565b602082019050919050565b6000612fe9600e83613a50565b9150612ff482613f0f565b600e82019050919050565b600061300c602483613a3f565b915061301782613f38565b604082019050919050565b600061302f601983613a3f565b915061303a82613f87565b602082019050919050565b6000613052602c83613a3f565b915061305d82613fb0565b604082019050919050565b6000613075605d83613a50565b915061308082613fff565b605d82019050919050565b6000613098603883613a3f565b91506130a382614074565b604082019050919050565b60006130bb602a83613a3f565b91506130c6826140c3565b604082019050919050565b60006130de602983613a3f565b91506130e982614112565b604082019050919050565b6000613101602d83613a3f565b915061310c82614161565b604082019050919050565b6000613124600483613a50565b915061312f826141b0565b600482019050919050565b6000613147602083613a3f565b9150613152826141d9565b602082019050919050565b600061316a602c83613a3f565b915061317582614202565b604082019050919050565b600061318d600a83613a50565b915061319882614251565b600a82019050919050565b60006131b0602183613a3f565b91506131bb8261427a565b604082019050919050565b60006131d3601d83613a50565b91506131de826142c9565b601d82019050919050565b60006131f6603183613a3f565b9150613201826142f2565b604082019050919050565b6000613219603d83613a50565b915061322482614341565b603d82019050919050565b600061323c602d83613a50565b915061324782614390565b602d82019050919050565b600060a083016000830151848203600086015261326f8282612e8a565b915050602083015184820360208601526132898282612e8a565b915050604083015161329e60408601826133ef565b5060608301516132b160608601826133ef565b5060808301516132c460808601826133ef565b508091505092915050565b600060c0830160008301516132e760008601826133ef565b50602083015184820360208601526132ff8282612e8a565b915050604083015184820360408601526133198282612e8a565b915050606083015161332e60608601826133ef565b50608083015161334160808601826133ef565b5060a083015161335460a08601826133ef565b508091505092915050565b600060c08301600083015161337760008601826133ef565b506020830151848203602086015261338f8282612e8a565b915050604083015184820360408601526133a98282612e8a565b91505060608301516133be60608601826133ef565b5060808301516133d160808601826133ef565b5060a08301516133e460a08601826133ef565b508091505092915050565b6133f881613bda565b82525050565b61340781613bda565b82525050565b600061341882613180565b91506134248289612efc565b915061342f82612f2d565b915061343b8288612efc565b915061344682613068565b91506134528287612efc565b915061345d8261320c565b91506134698286612efc565b915061347482612fdc565b91506134808285612efc565b915061348b8261322f565b91506134978284612efc565b91506134a282613117565b9150819050979650505050505050565b60006134bd826131c6565b91506134c98284612efc565b915081905092915050565b60006020820190506134e96000830184612dbe565b92915050565b60006080820190506135046000830187612dbe565b6135116020830186612dbe565b61351e60408301856133fe565b81810360608301526135308184612e51565b905095945050505050565b60006060820190506135506000830186612dbe565b61355d60208301856133fe565b61356a60408301846133fe565b949350505050565b6000602082019050818103600083015261358c8184612dcd565b905092915050565b60006020820190506135a96000830184612e42565b92915050565b600060208201905081810360008301526135c98184612ec3565b905092915050565b600060808201905081810360008301526135eb8187612ec3565b905081810360208301526135ff8186612ec3565b905061360e60408301856133fe565b81810360608301526136208184612ec3565b905095945050505050565b600060a08201905081810360008301526136458188612ec3565b905081810360208301526136598187612ec3565b905061366860408301866133fe565b61367560608301856133fe565b61368260808301846133fe565b9695505050505050565b600060608201905081810360008301526136a68186612ec3565b90506136b560208301856133fe565b6136c260408301846133fe565b949350505050565b600060208201905081810360008301526136e381612f50565b9050919050565b6000602082019050818103600083015261370381612f73565b9050919050565b6000602082019050818103600083015261372381612f96565b9050919050565b6000602082019050818103600083015261374381612fb9565b9050919050565b6000602082019050818103600083015261376381612fff565b9050919050565b6000602082019050818103600083015261378381613022565b9050919050565b600060208201905081810360008301526137a381613045565b9050919050565b600060208201905081810360008301526137c38161308b565b9050919050565b600060208201905081810360008301526137e3816130ae565b9050919050565b60006020820190508181036000830152613803816130d1565b9050919050565b60006020820190508181036000830152613823816130f4565b9050919050565b600060208201905081810360008301526138438161313a565b9050919050565b600060208201905081810360008301526138638161315d565b9050919050565b60006020820190508181036000830152613883816131a3565b9050919050565b600060208201905081810360008301526138a3816131e9565b9050919050565b600060208201905081810360008301526138c48184613252565b905092915050565b600060208201905081810360008301526138e6818461335f565b905092915050565b600060208201905061390360008301846133fe565b92915050565b600060c08201905061391e60008301896133fe565b81810360208301526139308188612ec3565b905081810360408301526139448187612ec3565b905061395360608301866133fe565b61396060808301856133fe565b61396d60a08301846133fe565b979650505050505050565b6000613982613993565b905061398e8282613c58565b919050565b6000604051905090565b600067ffffffffffffffff8211156139b8576139b7613d90565b5b6139c182613dbf565b9050602081019050919050565b6000819050602082019050919050565b600081519050919050565b600081519050919050565b600081519050919050565b6000602082019050919050565b600082825260208201905092915050565b600082825260208201905092915050565b600082825260208201905092915050565b600082825260208201905092915050565b600081905092915050565b6000613a6682613bda565b9150613a7183613bda565b9250827fffffffffffffffffffffffffffffffffffffffffffffffffffffffffffffffff03821115613aa657613aa5613d03565b5b828201905092915050565b6000613abc82613bda565b9150613ac783613bda565b925082613ad757613ad6613d32565b5b828204905092915050565b6000613aed82613bda565b9150613af883613bda565b9250817fffffffffffffffffffffffffffffffffffffffffffffffffffffffffffffffff0483118215151615613b3157613b30613d03565b5b828202905092915050565b6000613b4782613bda565b9150613b5283613bda565b925082821015613b6557613b64613d03565b5b828203905092915050565b6000613b7b82613bba565b9050919050565b60008115159050919050565b60007fffffffff0000000000000000000000000000000000000000000000000000000082169050919050565b600073ffffffffffffffffffffffffffffffffffffffff82169050919050565b6000819050919050565b82818337600083830152505050565b60005b83811015613c11578082015181840152602081019050613bf6565b83811115613c20576000848401525b50505050565b60006002820490506001821680613c3e57607f821691505b60208210811415613c5257613c51613d61565b5b50919050565b613c6182613dbf565b810181811067ffffffffffffffff82111715613c8057613c7f613d90565b5b80604052505050565b6000613c9482613bda565b91507fffffffffffffffffffffffffffffffffffffffffffffffffffffffffffffffff821415613cc757613cc6613d03565b5b600182019050919050565b6000613cdd82613bda565b9150613ce883613bda565b925082613cf857613cf7613d32565b5b828206905092915050565b7f4e487b7100000000000000000000000000000000000000000000000000000000600052601160045260246000fd5b7f4e487b7100000000000000000000000000000000000000000000000000000000600052601260045260246000fd5b7f4e487b7100000000000000000000000000000000000000000000000000000000600052602260045260246000fd5b7f4e487b7100000000000000000000000000000000000000000000000000000000600052604160045260246000fd5b6000601f19601f8301169050919050565b7f202d2d204e465420233a20000000000000000000000000000000000000000000600082015250565b7f4552433732313a207472616e7366657220746f206e6f6e20455243373231526560008201527f63656976657220696d706c656d656e7465720000000000000000000000000000602082015250565b7f4552433732313a207472616e736665722066726f6d20696e636f72726563742060008201527f6f776e6572000000000000000000000000000000000000000000000000000000602082015250565b7f4572726f723a20626f7373206d757374206861766520485020746f206174746160008201527f636b20626f73732e000000000000000000000000000000000000000000000000602082015250565b7f4552433732313a20746f6b656e20616c7265616479206d696e74656400000000600082015250565b7f2c20226d61785f76616c7565223a000000000000000000000000000000000000600082015250565b7f4552433732313a207472616e7366657220746f20746865207a65726f2061646460008201527f7265737300000000000000000000000000000000000000000000000000000000602082015250565b7f4552433732313a20617070726f766520746f2063616c6c657200000000000000600082015250565b7f4552433732313a206f70657261746f7220717565727920666f72206e6f6e657860008201527f697374656e7420746f6b656e0000000000000000000000000000000000000000602082015250565b7f222c20226465736372697074696f6e223a20225468697320697320616e204e4660008201527f542074686174206c6574732070656f706c6520706c617920696e20746865206760208201527f616d65204d6574616d617276656c7321222c2022696d616765223a2022000000604082015250565b7f4552433732313a20617070726f76652063616c6c6572206973206e6f74206f7760008201527f6e6572206e6f7220617070726f76656420666f7220616c6c0000000000000000602082015250565b7f4552433732313a2062616c616e636520717565727920666f7220746865207a6560008201527f726f206164647265737300000000000000000000000000000000000000000000602082015250565b7f4552433732313a206f776e657220717565727920666f72206e6f6e657869737460008201527f656e7420746f6b656e0000000000000000000000000000000000000000000000602082015250565b7f4572726f723a20636861726163746572206d757374206861766520485020746f60008201527f2061747461636b20626f73732e00000000000000000000000000000000000000602082015250565b7f7d205d7d00000000000000000000000000000000000000000000000000000000600082015250565b7f4552433732313a206d696e7420746f20746865207a65726f2061646472657373600082015250565b7f4552433732313a20617070726f76656420717565727920666f72206e6f6e657860008201527f697374656e7420746f6b656e0000000000000000000000000000000000000000602082015250565b7f7b226e616d65223a202200000000000000000000000000000000000000000000600082015250565b7f4552433732313a20617070726f76616c20746f2063757272656e74206f776e6560008201527f7200000000000000000000000000000000000000000000000000000000000000602082015250565b7f646174613a6170706c69636174696f6e2f6a736f6e3b6261736536342c000000600082015250565b7f4552433732313a207472616e736665722063616c6c6572206973206e6f74206f60008201527f776e6572206e6f7220617070726f766564000000000000000000000000000000602082015250565b7f222c202261747472696275746573223a205b207b202274726169745f7479706560008201527f223a20224865616c746820506f696e7473222c202276616c7565223a20000000602082015250565b7f7d2c207b202274726169745f74797065223a202241747461636b2044616d616760008201527f65222c202276616c7565223a2000000000000000000000000000000000000000602082015250565b6143e881613b70565b81146143f357600080fd5b50565b6143ff81613b82565b811461440a57600080fd5b50565b61441681613b8e565b811461442157600080fd5b50565b61442d81613bda565b811461443857600080fd5b5056fe4142434445464748494a4b4c4d4e4f505152535455565758595a6162636465666768696a6b6c6d6e6f707172737475767778797a303132333435363738392b2f4d696e746564204e465420772f20746f6b656e496420257320616e6420636861726163746572496e646578202573a2646970667358221220fbbce93517186f9de4da06bc3ee8e1a8f7a73afbd7420e938f1620c8008b577264736f6c63430008040033446f6e6520696e697469616c697a696e6720257320772f2048502025732c20696d67202573446f6e6520696e697469616c697a696e6720626f737320257320772f2048502025732c20696d67202573",
  "linkReferences": {},
  "deployedLinkReferences": {}
}